{
  "contractName": "AdvancedStorage",
  "abi": [
    {
      "constant": true,
      "inputs": [
        {
          "internalType": "uint256",
          "name": "",
          "type": "uint256"
        }
      ],
      "name": "ids",
      "outputs": [
        {
          "internalType": "uint256",
          "name": "",
          "type": "uint256"
        }
      ],
      "payable": false,
      "stateMutability": "view",
      "type": "function"
    },
    {
      "constant": false,
      "inputs": [
        {
          "internalType": "uint256",
          "name": "id",
          "type": "uint256"
        }
      ],
      "name": "add",
      "outputs": [],
      "payable": false,
      "stateMutability": "nonpayable",
      "type": "function"
    },
    {
      "constant": true,
      "inputs": [
        {
          "internalType": "uint256",
          "name": "i",
          "type": "uint256"
        }
      ],
      "name": "get",
      "outputs": [
        {
          "internalType": "uint256",
          "name": "",
          "type": "uint256"
        }
      ],
      "payable": false,
      "stateMutability": "view",
      "type": "function"
    },
    {
      "constant": false,
      "inputs": [],
      "name": "getAll",
      "outputs": [
        {
          "internalType": "uint256[]",
          "name": "",
          "type": "uint256[]"
        }
      ],
      "payable": false,
      "stateMutability": "nonpayable",
      "type": "function"
    },
    {
      "constant": true,
      "inputs": [],
      "name": "length",
      "outputs": [
        {
          "internalType": "uint256",
          "name": "",
          "type": "uint256"
        }
      ],
      "payable": false,
      "stateMutability": "view",
      "type": "function"
    }
  ],
  "bytecode": "0x608060405234801561001057600080fd5b50610294806100206000396000f3fe608060405234801561001057600080fd5b50600436106100575760003560e01c80631003e2d21461005c5780631f7b6d321461008a57806353ed5143146100a85780639507d39a14610107578063fac333ac14610149575b600080fd5b6100886004803603602081101561007257600080fd5b810190808035906020019092919050505061018b565b005b6100926101ba565b6040518082815260200191505060405180910390f35b6100b06101c6565b6040518080602001828103825283818151815260200191508051906020019060200280838360005b838110156100f35780820151818401526020810190506100d8565b505050509050019250505060405180910390f35b6101336004803603602081101561011d57600080fd5b810190808035906020019092919050505061021e565b6040518082815260200191505060405180910390f35b6101756004803603602081101561015f57600080fd5b810190808035906020019092919050505061023e565b6040518082815260200191505060405180910390f35b600081908060018154018082558091505090600182039060005260206000200160009091929091909150555050565b60008080549050905090565b6060600080548060200260200160405190810160405280929190818152602001828054801561021457602002820191906000526020600020905b815481526020019060010190808311610200575b5050505050905090565b600080828154811061022c57fe5b90600052602060002001549050919050565b6000818154811061024b57fe5b90600052602060002001600091509050548156fea265627a7a72315820b525d675f8106ffebf4617b134dff274b67be8959a40debddf8fc8fcef1d348864736f6c63430005100032",
  "source": "pragma solidity ^0.5.0;\r\n\r\ncontract AdvancedStorage {\r\n    uint[] public ids;\r\n\r\n    function add(uint id) public {\r\n        ids.push(id);\r\n    }\r\n\r\n    function get(uint i) view public returns (uint) {\r\n        return ids[i];\r\n    }\r\n\r\n    function getAll() public returns (uint[] memory) {\r\n        return ids;\r\n    }\r\n\r\n    function length() view public returns (uint) {\r\n        return ids.length;\r\n    }\r\n}",
  "sourcePath": "C:/Users/rafaeli/Documents/CursoBlockchainViernes/Clase8/Advanced-Storage/contracts/AdvancedStorage.sol",
  "compiler": {
    "name": "solc",
    "version": "0.5.16+commit.9c3226ce.Emscripten.clang"
  },
  "schemaVersion": "3.4.1",
  "updatedAt": "2021-06-11T23:18:34.012Z",
  "networkType": "ethereum",
  "devdoc": {
    "methods": {}
  },
  "userdoc": {
    "methods": {}
  }
}