{
  "contractName": "Votacion",
  "abi": [
    {
      "constant": true,
      "inputs": [
        {
          "internalType": "uint256",
          "name": "",
          "type": "uint256"
        }
      ],
      "name": "candidatos",
      "outputs": [
        {
          "internalType": "uint256",
          "name": "id",
          "type": "uint256"
        },
        {
          "internalType": "string",
          "name": "name",
          "type": "string"
        },
        {
          "internalType": "uint256",
          "name": "cantidad",
          "type": "uint256"
        }
      ],
      "payable": false,
      "stateMutability": "view",
      "type": "function"
    },
    {
      "constant": false,
      "inputs": [
        {
          "internalType": "string",
          "name": "name",
          "type": "string"
        }
      ],
      "name": "createCandidate",
      "outputs": [],
      "payable": false,
      "stateMutability": "nonpayable",
      "type": "function"
    },
    {
      "constant": false,
      "inputs": [
        {
          "internalType": "uint256",
          "name": "id",
          "type": "uint256"
        }
      ],
      "name": "getVotoCandidato",
      "outputs": [
        {
          "internalType": "uint256",
          "name": "",
          "type": "uint256"
        }
      ],
      "payable": false,
      "stateMutability": "nonpayable",
      "type": "function"
    },
    {
      "constant": false,
      "inputs": [
        {
          "internalType": "uint256",
          "name": "id",
          "type": "uint256"
        }
      ],
      "name": "updateVotos",
      "outputs": [],
      "payable": false,
      "stateMutability": "nonpayable",
      "type": "function"
    }
  ],
  "bytecode": "0x60806040526001805534801561001457600080fd5b506105bd806100246000396000f3fe608060405234801561001057600080fd5b506004361061004c5760003560e01c806340be9ef7146100515780635fba7a561461009357806362d76a271461014e5780638f023f851461017c575b600080fd5b61007d6004803603602081101561006757600080fd5b8101908080359060200190929190505050610231565b6040518082815260200191505060405180910390f35b61014c600480360360208110156100a957600080fd5b81019080803590602001906401000000008111156100c657600080fd5b8201836020820111156100d857600080fd5b803590602001918460018302840111640100000000831117156100fa57600080fd5b91908080601f016020809104026020016040519081016040528093929190818152602001838380828437600081840152601f19601f820116905080830192505050505050509192919290505050610266565b005b61017a6004803603602081101561016457600080fd5b81019080803590602001909291905050506102fa565b005b6101a86004803603602081101561019257600080fd5b810190808035906020019092919050505061034f565b6040518084815260200180602001838152602001828103825284818151815260200191508051906020019080838360005b838110156101f45780820151818401526020810190506101d9565b50505050905090810190601f1680156102215780820380516001836020036101000a031916815260200191505b5094505050505060405180910390f35b60008061023d8361041e565b90506000818154811061024c57fe5b906000526020600020906003020160020154915050919050565b6000604051806060016040528060015481526020018381526020016000815250908060018154018082558091505090600182039060005260206000209060030201600090919290919091506000820151816000015560208201518160010190805190602001906102d79291906104e3565b506040820151816002015550505060016000815480929190600101919050555050565b60006103058261041e565b905060016000828154811061031657fe5b906000526020600020906003020160020154016000828154811061033657fe5b9060005260206000209060030201600201819055505050565b6000818154811061035c57fe5b9060005260206000209060030201600091509050806000015490806001018054600181600116156101000203166002900480601f01602080910402602001604051908101604052809291908181526020018280546001816001161561010002031660029004801561040e5780601f106103e35761010080835404028352916020019161040e565b820191906000526020600020905b8154815290600101906020018083116103f157829003601f168201915b5050505050908060020154905083565b600080600090505b60008054905081101561046f57826000828154811061044157fe5b906000526020600020906003020160000154141561046257809150506104de565b8080600101915050610426565b506040517f08c379a00000000000000000000000000000000000000000000000000000000081526004018080602001828103825260138152602001807f43616e64696461746f206e6f206578697374650000000000000000000000000081525060200191505060405180910390fd5b919050565b828054600181600116156101000203166002900490600052602060002090601f016020900481019282601f1061052457805160ff1916838001178555610552565b82800160010185558215610552579182015b82811115610551578251825591602001919060010190610536565b5b50905061055f9190610563565b5090565b61058591905b80821115610581576000816000905550600101610569565b5090565b9056fea265627a7a72315820221a28f1d2198506a3bb1086b0cda1d23d21d11bd0965fc47ef61236fa574a2364736f6c63430005100032",
  "source": "pragma solidity ^0.5.0;\r\n\r\ncontract Votacion {\r\n\r\n    struct Candidato {\r\n        uint id;\r\n        string name;\r\n        uint cantidad;\r\n    }\r\n\r\n    Candidato[] public candidatos;\r\n\r\n    uint nextId = 1;\r\n\r\n    function createCandidate(string memory name) public {\r\n        candidatos.push(Candidato(nextId, name, 0));\r\n        nextId++;\r\n    }\r\n\r\n    function getVotoCandidato(uint id) public returns(uint) {\r\n        uint i = find(id);\r\n        return candidatos[i].cantidad;\r\n    }\r\n\r\n    function updateVotos(uint id) public {\r\n        uint i = find(id);\r\n        candidatos[i].cantidad = candidatos[i].cantidad + 1;\r\n    }\r\n\r\n    function find(uint id) view internal returns (uint) {\r\n        for(uint i=0; i < candidatos.length; i++) {\r\n            if(candidatos[i].id == id) {\r\n                return i;\r\n            }\r\n        }\r\n        revert('Candidato no existe');\r\n    }\r\n}",
  "sourcePath": "C:/Users/rafaeli/Documents/CursoBlockchainViernes/Clase8/Voto/contracts/Votacion.sol",
  "compiler": {
    "name": "solc",
    "version": "0.5.16+commit.9c3226ce.Emscripten.clang"
  },
  "schemaVersion": "3.4.1",
  "updatedAt": "2021-06-18T22:42:22.951Z",
  "networkType": "ethereum",
  "devdoc": {
    "methods": {}
  },
  "userdoc": {
    "methods": {}
  }
}