{
  "contractName": "HelloWorld",
  "abi": [
    {
      "constant": true,
      "inputs": [],
      "name": "hello",
      "outputs": [
        {
          "internalType": "string",
          "name": "",
          "type": "string"
        }
      ],
      "payable": false,
      "stateMutability": "pure",
      "type": "function"
    },
    {
      "constant": true,
      "inputs": [],
      "name": "hello2",
      "outputs": [
        {
          "internalType": "string",
          "name": "",
          "type": "string"
        }
      ],
      "payable": false,
      "stateMutability": "pure",
      "type": "function"
    }
  ],
  "bytecode": "0x608060405234801561001057600080fd5b506101f0806100206000396000f3fe608060405234801561001057600080fd5b50600436106100365760003560e01c8063011afdd71461003b57806319ff1d21146100be575b600080fd5b610043610141565b6040518080602001828103825283818151815260200191508051906020019080838360005b83811015610083578082015181840152602081019050610068565b50505050905090810190601f1680156100b05780820380516001836020036101000a031916815260200191505b509250505060405180910390f35b6100c661017e565b6040518080602001828103825283818151815260200191508051906020019080838360005b838110156101065780820151818401526020810190506100eb565b50505050905090810190601f1680156101335780820380516001836020036101000a031916815260200191505b509250505060405180910390f35b60606040518060400160405280601781526020017f48656c6c6f20437572736f20426c6f636b636861696e2e000000000000000000815250905090565b60606040518060400160405280600c81526020017f48656c6c6f20576f726c642e000000000000000000000000000000000000000081525090509056fea265627a7a72315820fc0aea3115ec65329d434ae0f63e111b4834c7caa88c31042de884b28eae5cd864736f6c63430005100032",
  "source": "pragma solidity ^0.5.0;\r\n\r\ncontract HelloWorld {\r\n\r\n    function hello() pure public returns(string memory) {\r\n        return \"Hello World.\";\r\n    }\r\n\r\n    function hello2() pure public returns(string memory) {\r\n        return \"Hello Curso Blockchain.\";\r\n    }\r\n    \r\n}",
  "sourcePath": "C:/Users/rafaeli/Documents/CursoBlockchainViernes/Clase7/Hello-World/contracts/HelloWorld.sol",
  "compiler": {
    "name": "solc",
    "version": "0.5.16+commit.9c3226ce.Emscripten.clang"
  },
  "schemaVersion": "3.4.1",
  "updatedAt": "2021-06-05T00:13:05.222Z",
  "networkType": "ethereum",
  "devdoc": {
    "methods": {}
  },
  "userdoc": {
    "methods": {}
  }
}