{
  "contractName": "Crud",
  "abi": [
    {
      "constant": true,
      "inputs": [
        {
          "internalType": "uint256",
          "name": "",
          "type": "uint256"
        }
      ],
      "name": "users",
      "outputs": [
        {
          "internalType": "uint256",
          "name": "id",
          "type": "uint256"
        },
        {
          "internalType": "string",
          "name": "name",
          "type": "string"
        }
      ],
      "payable": false,
      "stateMutability": "view",
      "type": "function"
    },
    {
      "constant": false,
      "inputs": [
        {
          "internalType": "string",
          "name": "name",
          "type": "string"
        }
      ],
      "name": "create",
      "outputs": [],
      "payable": false,
      "stateMutability": "nonpayable",
      "type": "function"
    },
    {
      "constant": true,
      "inputs": [
        {
          "internalType": "uint256",
          "name": "id",
          "type": "uint256"
        }
      ],
      "name": "read",
      "outputs": [
        {
          "internalType": "uint256",
          "name": "",
          "type": "uint256"
        },
        {
          "internalType": "string",
          "name": "",
          "type": "string"
        }
      ],
      "payable": false,
      "stateMutability": "view",
      "type": "function"
    },
    {
      "constant": false,
      "inputs": [
        {
          "internalType": "uint256",
          "name": "id",
          "type": "uint256"
        },
        {
          "internalType": "string",
          "name": "name",
          "type": "string"
        }
      ],
      "name": "update",
      "outputs": [],
      "payable": false,
      "stateMutability": "nonpayable",
      "type": "function"
    },
    {
      "constant": false,
      "inputs": [
        {
          "internalType": "uint256",
          "name": "id",
          "type": "uint256"
        }
      ],
      "name": "destroy",
      "outputs": [],
      "payable": false,
      "stateMutability": "nonpayable",
      "type": "function"
    }
  ],
  "bytecode": "0x60806040526001805534801561001457600080fd5b50610899806100246000396000f3fe608060405234801561001057600080fd5b50600436106100575760003560e01c8063365b98b21461005c5780639d1187701461010a578063b6a46b3b14610138578063ed2e5a97146101f3578063f745630f146102a1575b600080fd5b6100886004803603602081101561007257600080fd5b8101908080359060200190929190505050610366565b6040518083815260200180602001828103825283818151815260200191508051906020019080838360005b838110156100ce5780820151818401526020810190506100b3565b50505050905090810190601f1680156100fb5780820380516001836020036101000a031916815260200191505b50935050505060405180910390f35b6101366004803603602081101561012057600080fd5b810190808035906020019092919050505061042f565b005b6101f16004803603602081101561014e57600080fd5b810190808035906020019064010000000081111561016b57600080fd5b82018360208201111561017d57600080fd5b8035906020019184600183028401116401000000008311171561019f57600080fd5b91908080601f016020809104026020016040519081016040528093929190818152602001838380828437600081840152601f19601f820116905080830192505050505050509192919290505050610476565b005b61021f6004803603602081101561020957600080fd5b81019080803590602001909291905050506104f9565b6040518083815260200180602001828103825283818151815260200191508051906020019080838360005b8381101561026557808201518184015260208101905061024a565b50505050905090810190601f1680156102925780820380516001836020036101000a031916815260200191505b50935050505060405180910390f35b610364600480360360408110156102b757600080fd5b8101908080359060200190929190803590602001906401000000008111156102de57600080fd5b8201836020820111156102f057600080fd5b8035906020019184600183028401116401000000008311171561031257600080fd5b91908080601f016020809104026020016040519081016040528093929190818152602001838380828437600081840152601f19601f8201169050808301925050505050505091929192905050506105ed565b005b6000818154811061037357fe5b9060005260206000209060020201600091509050806000015490806001018054600181600116156101000203166002900480601f0160208091040260200160405190810160405280929190818152602001828054600181600116156101000203166002900480156104255780601f106103fa57610100808354040283529160200191610425565b820191906000526020600020905b81548152906001019060200180831161040857829003601f168201915b5050505050905082565b600061043a82610632565b90506000818154811061044957fe5b906000526020600020906002020160008082016000905560018201600061047091906106f7565b50505050565b60006040518060400160405280600154815260200183815250908060018154018082558091505090600182039060005260206000209060020201600090919290919091506000820151816000015560208201518160010190805190602001906104e092919061073f565b5050505060016000815480929190600101919050555050565b60006060600061050884610632565b90506000818154811061051757fe5b9060005260206000209060020201600001546000828154811061053657fe5b9060005260206000209060020201600101808054600181600116156101000203166002900480601f0160208091040260200160405190810160405280929190818152602001828054600181600116156101000203166002900480156105dc5780601f106105b1576101008083540402835291602001916105dc565b820191906000526020600020905b8154815290600101906020018083116105bf57829003601f168201915b505050505090509250925050915091565b60006105f883610632565b9050816000828154811061060857fe5b9060005260206000209060020201600101908051906020019061062c9291906107bf565b50505050565b600080600090505b60008054905081101561068357826000828154811061065557fe5b906000526020600020906002020160000154141561067657809150506106f2565b808060010191505061063a565b506040517f08c379a00000000000000000000000000000000000000000000000000000000081526004018080602001828103825260168152602001807f7573657220646f6573206e6f742065786973747321210000000000000000000081525060200191505060405180910390fd5b919050565b50805460018160011615610100020316600290046000825580601f1061071d575061073c565b601f01602090049060005260206000209081019061073b919061083f565b5b50565b828054600181600116156101000203166002900490600052602060002090601f016020900481019282601f1061078057805160ff19168380011785556107ae565b828001600101855582156107ae579182015b828111156107ad578251825591602001919060010190610792565b5b5090506107bb919061083f565b5090565b828054600181600116156101000203166002900490600052602060002090601f016020900481019282601f1061080057805160ff191683800117855561082e565b8280016001018555821561082e579182015b8281111561082d578251825591602001919060010190610812565b5b50905061083b919061083f565b5090565b61086191905b8082111561085d576000816000905550600101610845565b5090565b9056fea265627a7a7231582063baecb418fbbc97fe772fd824107fa2283a45fc80928250fa14d71b69f73c1164736f6c63430005100032",
  "source": "pragma solidity ^0.5.0;\r\n\r\ncontract Crud {\r\n    struct User {\r\n        uint id;\r\n        string name;       \r\n    }\r\n\r\n    User[] public users; \r\n    uint nextId = 1;\r\n\r\n    function create(string memory name) public {\r\n        users.push(User(nextId, name));\r\n        nextId++;\r\n    }\r\n\r\n    function read(uint id) view public returns(uint, string memory) {\r\n        uint i = find(id);\r\n        return(users[i].id, users[i].name);\r\n    }\r\n\r\n    function update(uint id, string memory name) public {\r\n        uint i = find(id);\r\n        users[i].name = name;\r\n    }\r\n\r\n    function destroy(uint id) public {\r\n         uint i = find(id);\r\n         delete users[i];\r\n    }\r\n\r\n    function find(uint id) view internal returns (uint) {\r\n        for(uint i=0; i < users.length; i++) {\r\n            if(users[i].id == id) {\r\n                return i;\r\n            }\r\n        }\r\n        revert('user does not exists!!');\r\n    }\r\n\r\n}",
  "sourcePath": "C:/Users/rafaeli/Documents/CursoBlockchainViernes/Clase9/Crud/contracts/Crud.sol",
  "compiler": {
    "name": "solc",
    "version": "0.5.16+commit.9c3226ce.Emscripten.clang"
  },
  "schemaVersion": "3.4.1",
  "updatedAt": "2021-06-19T00:30:12.557Z",
  "networkType": "ethereum",
  "devdoc": {
    "methods": {}
  },
  "userdoc": {
    "methods": {}
  }
}